:100000000B308A00122B0000FF00030E8301A100B9
:100010000A08A0008A010408A2007708A300780853
:10002000A4007908A5007A08A600831383128C30F7
:100030008400801E1D288C1A2E2822088400230884
:10004000F7002408F8002508F9002608FA0020081F
:100050008A00210E8300FF0E7F0E09008A110A120A
:1000600039280A108A100A11820728340C34013406
:1000700006348C1E39281A08BC000130BB008C12D3
:100080008A110A121D282A152A152A152A152A1539
:100090002A152A152A152A152A152A152A152A1568
:1000A0002A050D002A152A15AA264527551041268E
:1000B0004129CD202A152A152A050D002A152A15B1
:1000C0002A152A152A152A152A152A152A152A1538
:1000D0002A152A152A152A050D00D422532A202272
:1000E000451041264129CD202028D222D3244F2754
:1000F0004510311D8A060001C121D424D62052109A
:1001000041264129CD202028D222D3244F27451033
:10011000321D8A060001C422D320432A492B4129DB
:10012000A020CC20D22641105029C529C927CE2293
:10013000A0193A050D000C15AA2645275510412691
:100140004129CD202A152A00311020192010330012
:10015000311DA024EE34E3346137E437202AE53939
:1001600074050D008C18BA24EE34E3346137E4379B
:10017000D432733A0001321DA024EE34E3346137E7
:10018000E437A020EC30F23661050D000C19BA24DA
:10019000EE34E3346137E43741366139ED30000144
:1001A000331DA020EC30F2366110C432F330633AD4
:1001B000693B613261050D008C19BA20EC30F236D2
:1001C0006122E539E131F434F630E4300001EE37F4
:1001D000A0327310753761106F38E3346F37000148
:1001E000EE37A0327310753761106F38E3346F3714
:1001F0008A0600002A152A2AC5295410C422A020E4
:10020000C322CC22D227CD2254294F152A158A0683
:1002100000014922A020442CCC18331AB51E253CDD
:100220008A0600002A152A2AC5295410C422A029AA
:100230004F2749224F152A158A060001E237E33479
:10024000EE303D10253220050D002A152A2AC52939
:100250005410C4222026D521C5292A152A050D00AF
:10026000EC3AE332F31EA01264108A0600012A154C
:100270002A23492720224510D422532A2A152A0549
:100280000D004D30840083130008031955290130F7
:10029000F800F701F70B4A29F80B49294A30F70013
:1002A000F70B50295329800B4729080094138C1110
:1002B0005A0893000230941B64298C1D5D2900307C
:1002C0008316111B01308312F80008005808003A09
:1002D00003196E29013A03198E29AF29570EF70029
:1002E000F030F70577082C04D900DA005621000019
:1002F000570EF700F030F705770804382C04D900C2
:10030000DA0056218329570EF700F030F7057708F9
:10031000FB392C04D900DA005621AF29570EF7001B
:10032000F030F705770801382C04D900DA0056219F
:100330000000570EF700F030F70577080138043851
:100340002C04D900DA005621A529570EF700F03009
:10035000F705770801382C04D900DA005621080087
:10036000831611141118B22983122808DA005621B5
:10037000540ED6000F30D6055608D7005508D800C1
:10038000662154080F39D600D7005508D8006621D9
:10039000831611151119CA29831208000130D400DF
:1003A000D501B0210230CD0041210130AB00080061
:1003B0004E30BD001030BE000230BF003D08A80026
:1003C0003F08A9003E08AA000B138B138B1BE529DD
:1003D0003230CD004121831611141118ED298312FA
:1003E0002808DA005621D701D80166210F30CD0048
:1003F00041210130C0004008033C031C082A03309F
:10040000D700D80166210530CD004121C00AFB2963
:100410000230D700D80166210530CD004121831676
:1004200011151119112A8312C0014008033C031C45
:10043000242A40083120C100D400D501B021053064
:10044000CD004121C00A152ACE21C0308B040130D5
:10045000BD00BD0803192F2A0830AC00302AAC01BA
:10046000CE2100308316880088018312880183160C
:1004700006108312061083168610831286108316C8
:100480008C16C03083128B048A150A123F2B8316F8
:1004900011141118492AA6308312DA0056212C3083
:1004A000DA0056210B30DA00562183161115111986
:1004B000572A111411185A2AA6308312DA0056212D
:1004C0002D30DA0056210930DA0056218316111535
:1004D0001119682A111411186B2AA6308312DA0038
:1004E00056213130DA005621DA01562183161115D2
:1004F0001119782A83128A150A12422B0B08BF00A1
:100500008B13831603178C170C1400000000831242
:100510000C087F390319C72A0313C00003170D08FD
:100520000313C10003170F080313C20040080C1E79
:10053000972A9900410803178D00031342080317F7
:100540008F0083168C170C140000000083120C0D12
:100550000E0D7F390319C72A0313C00003170D08B6
:100560000313C10003170F080313C20040080C1E39
:10057000B72A9900410803178D0003134208031797
:100580008F008D0A03198F0A0313812A031703139F
:10059000BF1B8B1708004E0829020318D22A29080E
:1005A000CF00D42A4E08CF004F08013A0319E22A9F
:1005B000033A0319E42A013A0319E72A073A03190F
:1005C000EA2AED2AD101EE2A4030D100EE2A143079
:1005D000D100EE2A5430D100EE2AD1014D082A0272
:1005E0000318F52A2A08D000F72A4D08D000013058
:1005F00050025107D20052088038D300D400D501F0
:10060000B02108004C080C3A03190D2B063A0319C7
:100610000F2B023A03191C2B212BCE21262BAB0AC0
:100620002B0829020318162B0130AB000130CD0036
:100630002B08CE00CB22262B1030D400D501B021C0
:10064000262B4C08D4000130D500B02108000B083F
:10065000BD008B13831603178C170C1400000000C9
:1006600083120C087F3903196E2B0313BE00031786
:100670000D080313BF0003170F080313C0003E0843
:10068000CC0002233F0803178D0003134008031713
:100690008F0083168C170C140000000083120C0DC1
:1006A0000E0D7F3903196E2B0313BE0003170D08BF
:1006B0000313BF0003170F080313C0003E08CC004C
:1006C00002233F0803178D000313400803178F0010
:1006D0008D0A03198F0A03132A2B03170313BD1B5B
:1006E0008B1708001413831691159119752B771821
:1006F0009112771C91161116111A7C2B8312130874
:10070000F80008000B08C0008B13831603178C1722
:100710000C14000000000318B52B83120C087F395D
:100720000313C10003170D080313C20003170F08BA
:100730000313C30041080C1E9B2B990042080317AA
:100740008D000313430803178F0083168C170C14B6
:100750000000000083120313BF0BAF2BB22B8316D4
:100760000317B52BD52B8316031783120C0D0E0D13
:100770007F390313C10003170D080313C2000317C9
:100780000F080313C30041080C1EC42B9900420834
:1007900003178D000313430803178F008D0A0319F5
:1007A0008F0A03100313BF0B852BC01B8B17080088
:1007B0008E30F7005908F8005808F900FA01D91FDF
:1007C000E62BF809F909F90A0319F80AF808031DD4
:1007D000F32B7908F800F9010830F702F808031D37
:1007E000F32BF701FC2B0310F81BFA2BF90DF80D76
:1007F000F703F32BD91FF8130800580803196D2CC1
:10080000E0005C0803196D2CE00703180E2C7F3004
:10081000E002031C6D2C03196D2C122C8130E007B3
:1008200003186D2C6008F700F801F901FA01590866
:10083000E400E4175A08E3005B08E2001830E00027
:10084000E101621C3B2C5F08FA07031C2D2CF90AFE
:10085000031D2D2CF80A0319E1175E08F907031C84
:10086000342CF80A0319E1175D08DA00DA175A0880
:10087000F8070318E117E10DF80CF90CFA0CE40C79
:10088000E30CE20C0310E00B202C0130F7070318F7
:100890006D2CF81B522CE40DFA0DF90DF80DF70331
:1008A00003196D2CE41F632CFA0A031D632CF90A4B
:1008B000031D632CF80A031D632CF80CF90CFA0CC9
:1008C000F70A03196D2C5908E1005D08E106E11FE4
:1008D0006B2CF817712CF813712CF701F801F90142
:1008E000FA010800831611141118742CA630831213
:1008F000DA0056213230DA0056218316911491180D
:100900007F2CA7308312DA0056210130F7007223C2
:100910007808C6000130F70072237808C70001305C
:10092000F70072237808C8000130F70072237808B6
:10093000C9000130F70072237808CA00F70172235A
:100940007808CB00831611151119A42C83124708BF
:10095000C1004608C0004908C3004808C2004B084F
:10096000C5004A08C4004108D9004008D800D8236F
:100970007A08DB007908DA007808D9007708D8000F
:10098000DF01DE01DD017730DC00FD237A08CF00D6
:100990007908CE007808CD007708CC004308D9004C
:1009A0004208D800D8237A08DB007908DA007808F2
:1009B000D9007708D800DF01DE01DD017730DC00E7
:1009C000FD237A08D3007908D2007808D10077088F
:1009D000D0004508D9004408D800D8237A08DB00A5
:1009E0007908DA007808D9007708D800DF01DE013D
:1009F000DD017730DC00FD237A08D7007908D600C6
:100A00007808D5007708D4003F08783A03190F2DED
:100A1000013A0319192D033A0319232D2C2D4C08E3
:100A2000F7004D08F8004E08F9004F08FA002C2D89
:100A30002C2D5008F7005108F8005208F90053080F
:100A4000FA002C2D2C2D5408F7005508F8005608F4
:100A5000F9005708FA002C2D08004C08B63CCC00D1
:100A6000FA014D08D000CD170310CD0CCE0CCF0CE1
:100A7000FA0CF90CF80CF70CCC0B342DD01F4B2DC5
:100A8000F709F809F909FA09F70A0319F80A031925
:100A9000F90A0319FA0A08008318512D543084000A
:100AA0008313F701F801F901FA01D401D501D60148
:100AB000D701530852045104500403198F2D2030DC
:100AC000D8000310CC0DCD0DCE0DCF0DD40DD50D0E
:100AD000D60DD70D53085702031D782D5208560224
:100AE000031D782D51085502031D782D500854021E
:100AF000031C892D5008D4025108031C510FD50244
:100B00005208031C520FD6025308031C530FD7027E
:100B10000314F70DF80DF90DFA0DD80B612D5408DB
:100B20008000840A55088000840A56088000840AE0
:100B30005708800008000408C4004308C6000319D1
:100B4000BA2D4208DB004108DA004008D9003F080E
:100B5000D800DF01DE012030DD008230DC00FD2323
:100B60007A08C2007908C1007808C0007708BF0081
:100B7000C60BA12D4208CF004108CE004008CD0091
:100B80003F08CC002D257A08C2007908C1007808FA
:100B9000C0007708BF00C21FDA2DC403C416BF0906
:100BA000C009C109C209BF0A0319C00A0319C10A51
:100BB0000319C20A3B30CB009A30CA00CA30C900C0
:100BC000C8010A30C60043080319C40A83143F3021
:100BD000840083134208CF004108CE004008CD00B6
:100BE0003F08CC004B08D3004A08D2004908D10086
:100BF0004808D0004C257808F708031D122E430A38
:100C000046020319122E44080319142E0F39460206
:100C100003190C2E0318442EC41B442E441B142EFF
:100C20002030402E2030C405C41E222EC41243089A
:100C3000031DC4037708C4002D30CC0002234408F0
:100C4000F700C40143084602031D302E7708C40094
:100C50002E30CC0002234408F7002030C4050030B9
:100C60003030C41E402EC4124308031DC40377084D
:100C7000C4002D30CC0002234408F700C4013030FA
:100C8000F7077708CC00022383104B08CF004A08EF
:100C9000CE004908CD004808CC00D301D201D101D3
:100CA0000A30D0004C257A08CB007908CA007808B1
:100CB000C9007708C800C60BE62D08000408C40068
:100CC0004308C60003197D2E4208DB004108DA0004
:100CD0004008D9003F08D800DF01DE012030DD00E8
:100CE0008230DC00FD237A08C2007908C100780850
:100CF000C0007708BF00C60B642E4208CF00410831
:100D0000CE004008CD003F08CC002D257A08C20057
:100D10007908C1007808C0007708BF00C21F9D2E67
:100D2000C403C416BF09C009C109C209BF0A031917
:100D3000C00A0319C10A0319C20A3B30CB009A301A
:100D4000CA00CA30C900C8010A30C60043080319E6
:100D5000C40A83143F30840083134208CF00410843
:100D6000CE004008CD003F08CC004B08D3004A0815
:100D7000D2004908D1004808D0004C257808F7086F
:100D8000031DD52E430A46020319D52E4408031924
:100D9000D72E0F3946020319CF2E03180B2FC41B71
:100DA0000B2F441BD72E2030062F2030C405C41E25
:100DB000E62EC4124308031DC4037708C4002D3077
:100DC0000C1EE02E99004408F700C40143084602B7
:100DD000031DF52E7708C4002E300C1EED2E990051
:100DE0004408F7002030C40500303030C41E062F00
:100DF000C4124308031DC4037708C4002D300C1E21
:100E0000FF2E99004408F700C4013030F707770837
:100E10000C1E082F990083104B08CF004A08CE0003
:100E20004908CD004808CC00D301D201D1010A30D5
:100E3000D0004C257A08CB007908CA007808C90090
:100E40007708C800C60BA92E08004608F80145021D
:100E500003182D2F4508F700392FF7010830C70078
:100E6000C50DF70D460877020318F700F80DC70BFC
:100E7000302F08002030401E3030C1003F08F700FE
:100E8000BF1F4A2FF709F70A7708BF002D30C100AE
:100E9000C01740143F08C5006430C60025277708F6
:100EA000BF0030307807C2003F08C5000A30C600D6
:100EB000252730307707C40030307807C300410859
:100EC000F700303042020319692FC014C01B4015CF
:100ED0007D2F4108C2002030C10030304302031989
:100EE000752F4014C01BC0147D2F031D4014031D1B
:100EF0007D2F4208C3002030C2004019842FC01843
:100F0000882F40188C2F902F41080C1E852F990098
:100F100042080C1E892F990043080C1E8D2F990042
:0A0F200044080C1E912F99000800F0
:101000008316111411180228A6308312DA008A11EF
:1010100056218A15DA018A1156218A1583169114F0
:1010200091181028A7308312DA008A1156218A15E8
:10103000F7018A1172238A157808BF0083161115EB
:101040001119202883123F08F8007808BA004930A7
:10105000CC008A1102238A154430CC008A11022365
:101060008A153D30CC008A1102238A153A08BF0048
:101070005730C000C01B4E280F30F7003F0EF70559
:101080000A307702031847283030F707492840080C
:10109000F7077708CC008A1102238A150F30BF05A5
:1010A0000A303F020318562830305828C013400831
:1010B000BF073F08CC008A1102238A15FA300317B4
:1010C0008D0000308F008A1103137E228A150430B0
:1010D000BF00FA30CD008A1141218A15BF0B692863
:1010E000093003178D0001308F0003100C300313FB
:1010F000BF008A1182238A153A08BF005730C0000A
:10110000C01B93280F30F7003F0EF7050A30770217
:1011100003188D283030F7078F284008F707770825
:101120000C1E902899000F30BF050A303F020318AB
:101130009B2830309D28C0134008BF073F080C1E75
:101140009F2899000A300C1EA32899000D300C1E10
:10115000A72899000430BF00FA30CD008A11412140
:101160008A15BF0BAC287830BF008A1172248A150B
:101170007A08B1007908B0007808AF007708AE00AF
:101180007930BF008A1172248A157A08B50079086F
:10119000B4007808B3007708B2007A30BF008A1133
:1011A00072248A157A08B9007908B8007808B7005F
:1011B0007708B6000C30CC008A1102238A157830EB
:1011C000CC008A1102238A153D30CC008A110223FB
:1011D0008A15893084003108C2003008C1002F0808
:1011E000C0002E08BF000230C3008A119B258A155B
:1011F0002030CC008A1102238A157930CC008A1164
:1012000002238A153D30CC008A1102238A158930C9
:1012100084003508C2003408C1003308C000320819
:10122000BF000230C3008A119B258A150A30CC000A
:101230008A1102238A157A30CC008A1102238A157A
:101240003D30CC008A1102238A1589308400390888
:10125000C2003808C1003708C0003608BF0002309D
:10126000C3008A119B258A156430CD008A11412163
:101270008A1578300C1E3A2999003D300C1E3E2903
:101280009900893084003108C2003008C1002F085D
:10129000C0002E08BF000230C3008A115E268A15E6
:1012A00020300C1E5129990079300C1E55299900C7
:1012B0003D300C1E59299900893084003508C20040
:1012C0003408C1003308C0003208BF000230C30038
:1012D0008A115E268A1520300C1E6C2999007A30FE
:1012E0000C1E702999003D300C1E7429990089301C
:1012F00084003908C2003808C1003708C000360829
:10130000BF000230C3008A115E268A1520300C1EF1
:10131000872999000D300C1E8B2999000A300C1E6C
:101320008F2999006430CD008A1141218A1512302D
:1013300003178D0001308F008A1103137E228A1556
:101340000430BF00FA30CD008A1141218A15BF0B4D
:10135000A229BD013D08033C031CD62901308806A3
:101360006430CD008A1141218A151E3003178D008B
:1013700001308F00031008300313BF008A1182234D
:101380008A153D08BF001830C0008A113A278A1517
:1013900020300C1EC92999000A300C1ECD29990055
:1013A0000D300C1ED1299900BD0AAA29253003173A
:1013B0008D0001308F008A1103137E228A150430BC
:1013C000BF00FA30CD008A1141218A15BF0BE129F7
:1013D000BE013E08033C031C152A02308806643017
:1013E000CD008A1141218A15303003178D0001305C
:1013F0008F00031007300313BF008A1182238A1560
:101400003E08BF001830C0008A113A278A152030E4
:101410000C1E082A99000A300C1E0C2A99000D3067
:101420000C1E102A9900BE0AE929373003178D00D7
:1014300001308F008A1103137E228A150430BF0009
:10144000FA30CD008A1141218A15BF0B202A8A1556
:101450000A12C62B7830BF008A1172248A157A08C6
:10146000B1007908B0007808AF007708AE00793095
:10147000BF008A1172248A157A08B5007908B40071
:101480007808B3007708B2007A30BF008A1172245E
:101490008A157A08B9007908B8007808B700770883
:1014A000B6000C30CC008A1102238A157830CC00AB
:1014B0008A1102238A153D30CC008A1102238A1535
:1014C000893084003108C2003008C1002F08C000F4
:1014D0002E08BF000230C3008A119B258A152030D8
:1014E000CC008A1102238A157930CC008A1102239C
:1014F0008A153D30CC008A1102238A158930840078
:101500003508C2003408C1003308C0003208BF00EB
:101510000230C3008A119B258A150A30CC008A113B
:1015200002238A157A30CC008A1102238A153D30B5
:10153000CC008A1102238A15893084003908C20040
:101540003808C1003708C0003608BF000230C300A9
:101550008A119B258A156430CD008A1141218A1594
:1015600078300C1EB12A99003D300C1EB52A990026
:10157000893084003108C2003008C1002F08C00043
:101580002E08BF000230C3008A115E268A15203063
:101590000C1EC82A990079300C1ECC2A99003D30C7
:1015A0000C1ED02A9900893084003508C200340806
:1015B000C1003308C0003208BF000230C3008A11E6
:1015C0005E268A1520300C1EE32A99007A300C1E04
:1015D000E72A99003D300C1EEB2A990089308400DF
:1015E0003908C2003808C1003708C0003608BF00FB
:1015F0000230C3008A115E268A1520300C1EFE2A96
:1016000099000D300C1E022B99000A300C1E062B7F
:1016100099006430CD008A1141218A152A2A8A1541
:101620000A12EE2B03081F398300FF30A700A7150D
:10163000270883168700831227162708831687003A
:1016400002309300283083129400831694131413ED
:1016500019309900A630980090308312980001301C
:10166000AB000830AC0083161F149F141F159F1188
:1016700007309C0083138312AD018A11D8298A1583
:101680008A11472A8A15433003178D0000308F00D6
:101690008A1103137E228A15523003178D00003001
:1016A0008F008A1103137E228A155E3003178D0086
:1016B00000308F008A1103137E228A156D300317C4
:1016C0008D0000308F008A1103137E228A157C3032
:1016D00003178D0000308F008A1103137E228A15B4
:1016E0008B3003178D0000308F008A1103137E2288
:1016F0008A159B3003178D0000308F008A11031369
:1017000027238A150130CD000230CE008A11CB226A
:101710008A15A43003178D0000308F008A1103133F
:1017200027238A150430BD00FA30CD008A114121EB
:101730008A15BD0B942BBB080319462C3C08313A83
:101740000319A92B033A0319D12B013A0319F92BD9
:10175000212C83160610831206100130CD00CE0016
:101760008A11CB228A15A83003178D0000308F0014
:101770008A1103137E228A15B23003178D000030C0
:101780008F008A11031327238A1500280230BD0019
:101790009630CD008A1141218A15BD0BC82BBB01A3
:1017A000462C83160610831206100130CD00CE00A1
:1017B0008A11CB228A15BB3003178D0000308F00B1
:1017C0008A1103137E228A15C63003178D0000305C
:1017D0008F008A11031327238A152A2A0230BD009D
:1017E0009630CD008A1141218A15BD0BF02BBB012B
:1017F000462C83160610831206140130CD000230E9
:10180000CE008A11CB228A15D03003178D0000300C
:101810008F008A1103137E228A15DC3003178D0096
:1018200000308F008A11031327238A150230BD0070
:101830009630CD008A1141218A15BD0B182CBB01B1
:10184000462C0130CD000230CE008A11CB228A1501
:10185000E73003178D0000308F008A110313272310
:101860008A15F03003178D0000308F008A110313A2
:101870007E228A150430BD00FA30CD008A11412144
:101880008A15BD0B3C2CBB018A0100289B2B6300F1
:02400E00313F40
:00000001FF
;PIC16F877A
;CRC=F43C  CREATED="06-May.-23 12:32"
